:020000040800F2
:10000000581D0020D101000829100008490B0008E4
:10001000710E0008BD050008311D00080000000039
:10002000000000000000000000000000BD150008F6
:10003000450600080000000079150008211B000893
:10004000EB010008EB010008EB010008EB010008E0
:10005000EB010008EB010008CD060008FD060008D2
:100060002D0700085D070008EB010008EB01000800
:10007000EB010008EB010008EB010008EB010008B0
:10008000EB010008EB010008EB010008EB010008A0
:10009000EB010008EB010008EB0100088D070008E8
:1000A000EB010008EB010008EB010008EB01000880
:1000B000EB010008EB010008EB010008EB01000870
:1000C000EB010008EB010008EB010008EB01000860
:1000D000EB010008AD1C0008EB010008EB01000873
:1000E000EB010008EB010008EB01000800F002F84A
:1000F00000F05EF80AA090E8000C82448344AAF164
:100100000107DA4501D100F053F8AFF2090EBAE861
:100110000F0013F0010F18BFFB1A43F0010318473B
:100120009C360000BC3600000A444FF0000C10F86A
:10013000013B13F0070408BF10F8014B1D1108BF65
:1001400010F8015B641E05D010F8016B641E01F805
:10015000016BF9D113F0080F1EBF10F8014BAD1C55
:100160000C1B09D16D1E58BF01F801CBFAD505E073
:1001700014F8016B01F8016B6D1EF9D59142D6D3CD
:10018000704700000023002400250026103A28BFF5
:1001900078C1FBD8520728BF30C148BF0B607047F9
:1001A0001FB59DE8030000F0ABF81FBD10B510BDF2
:1001B00000F001F91146FFF7F3FF01F01BFE00F01C
:1001C0001FF903B4FFF7F2FF03BC01F0B3FD000019
:1001D0000948804709480047FEE7FEE7FEE7FEE7DB
:1001E000FEE7FEE7FEE7FEE7FEE7FEE70448054917
:1001F000054A064B70470000251B0008ED0000086B
:1002000058090020581D00205819002058190020B6
:10021000704770B5064600F057F8056806F10B0008
:1002200020F00704B4429CBF002070BD2B466A68D2
:10023000BAB11068A04210D304F1080188423CBF53
:100240005068586007D35168101941601168091B44
:10025000016058601460101D70BD13465268002A7A
:10026000E7D12146284600F037F80028DED170BDDE
:1002700070B50446051F00F027F80068002C14BF75
:10028000446870BD002C18BFAC423CBF2046646877
:10029000F8D301680A18AA4218BF456003D12A683A
:1002A00005461144016028684119A1421CBF6C60D9
:1002B00070BD6168696021680844286070BD70473E
:1002C000704770477047000000487047FC080020E6
:1002D000704770477047704738B504460A4600209B
:1002E0006946AFF30080002808BF38BD0246009978
:1002F000204600F03FF8012038BD012000F054B83E
:10030000F8B5AFF30080054600200C46102000BF72
:100310000646A819A0420DD9324669460020AFF31F
:100320000080070008BF00F03FF80098A04218BF07
:100330000546C419FFF7C8FF05600746F01D20F009
:1003400007004619284600F00AF8B44208BFF8BD75
:10035000A21B31463868BDE8F84000F00BB8002118
:100360000160C0E9011070471020704700487047D5
:10037000F4080020034640688C46002818BF8842D5
:100380003CBF03464068F8D318681844884207D039
:100390000CF1030020F00700001D411A521A01461B
:1003A000081D0A60FFF764BF10B500F037F8BDE81C
:1003B000104000F02EB87546FFF7D8FFAE46050096
:1003C0006946534620F00700854618B020B5FFF770
:1003D0000DFFBDE820404FF000064FF000074FF042
:1003E00000084FF0000B21F00701AC46ACE8C00953
:1003F000ACE8C009ACE8C009ACE8C0098D4670475C
:1004000010B50446AFF300802046BDE81040FFF76A
:10041000D8BE002801D001F08DBC704710B501286E
:1004200005D0002103A000F021F8012010BD09A192
:10043000F8E7000053494752544D454D3A204F7557
:1004400074206F662068656170206D656D6F7279CC
:10045000000000003A2048656170206D656D6F7284
:100460007920636F727275707465640070B50546AB
:100470000C460A2000E06D1C01F05EFC35B12878C6
:100480000028F8D102E0641C01F056FC14B1207879
:100490000028F8D1BDE870400A2001F04DBC10B52D
:1004A000FF2000F031F80446552C01D1002010BD8A
:1004B0005521FF2000F062F802220021084600F0DA
:1004C00049F8FF2000F020F80446552C01D1002007
:1004D000EDE70120EBE710B500F0A2FB10BD2DE920
:1004E000F04107460C460026002508E0360239197F
:1004F000491B481E00F008F80644681CC5B2A54216
:10050000F4DB3046BDE8F08170B50446002500F00C
:1005100031FCA02000F0FAFB00F078FCC4F30720C7
:1005200000F0F4FB00F072FC00F070FCE0B200F0B0
:10053000EDFB00F06BFC00F01DFCA12000F0E6FBE1
:1005400000F064FC002000F0A9FB054600F038FC38
:10055000284670BD2DE9F04105460E461746002499
:1005600008E0E20026FA02F2D1B2281900F006F8FB
:10057000601CC4B2BC42F4DBBDE8F08170B5044637
:100580000D4600F0F7FBA02000F0C0FB00F03EFCA1
:10059000C4F3072000F0BAFB00F038FCE0B200F032
:1005A000B5FB00F033FC284600F0B0FB00F02EFC59
:1005B00000F006FC0A2001F0E1FB70BD00BFFEE781
:1005C000002000BF03E00021034A1154401CB0F595
:1005D000806FF8D3704700002C04002000B5174846
:1005E0000088042101EB40001549096808704FF0AC
:1005F0008040808C122101EB40001149096848704D
:1006000010E00E480088042101EB40000C49096805
:1006100008704FF08040808C122101EB40000849A7
:1006200009684870064A12685178054A12681078BD
:1006300000F0ACFA0028E4D100BD00002404004022
:100640000C0400207047000008B5044807238022EE
:1006500000210090084600F04BFD08BD2C0400204E
:1006600070B50A46CD1701EB5575C5F3C703CD1715
:1006700001EB5575ED10A1EBC505ECB200EBC31213
:10068000054DAA5C0125A5402A43D5B200EBC31253
:10069000014EB55470BD00002C04002070B5044616
:1006A0000D4629462046FFF7DBFF611EC8B22946EA
:1006B000FFF7D6FF6A1CD1B2621ED0B2FFF7D0FF9F
:1006C000681CC1B22046FFF7CBFF70BD10B50A20F1
:1006D00001F054FB0121074800F0BBF930B906488E
:1006E0000078032802D0042003490870012000F09C
:1006F000B5F810BD000801401004002010B50A2014
:1007000001F03CFB0221074800F0A3F930B906488C
:100710000078022802D0012003490870022000F06E
:100720009DF810BD000801401004002010B50A20FB
:1007300001F024FB0421074800F08BF930B906488A
:100740000078012802D0022003490870042000F03C
:1007500085F810BD000801401004002010B50A20E3
:1007600001F00CFB0821074800F073F930B9064886
:100770000078042802D0032003490870082000F004
:100780006DF810BD000801401004002010B50220D3
:1007900001F0F4FA20212D4800F05BF9002842D145
:1007A00080212A4800F055F9E8B929480078401D11
:1007B00027490870274800686438264908600846B9
:1007C0000068C82801D2C820086021480078322873
:1007D00002DD32201E490870142001F0CFFA2020DB
:1007E00000F03CF81FE01A480078401F18490870D4
:1007F000184800686430174908600846006840F2ED
:100800004C41884202D908461249086010480078D5
:10081000052802DA05200E490870142001F0AEFA0E
:10082000202000F01BF8092001F0A8FA4021074819
:1008300000F00FF940B9002007490870142001F0BA
:100840009DFA402000F00AF810BD0000000C0140A5
:100850001C04002018040020000400200149086046
:100860007047000014040140002123498279002AC6
:100870003AD00A46126803689A430B461A600A1D6A
:10088000126803689A430B1D1A60027911440A68C2
:1008900003681A430A60184A0832126803689A43C8
:1008A000154B08331A601A1D126803689A43124BDD
:1008B0000C331A604279102A0ED11A1F126803688D
:1008C0001A430D4B08331A601A1D126803681A4345
:1008D000094B0C331A600DE00749427911440A684C
:1008E00003681A430A6005E0027911440A68036844
:1008F0009A430A60704700000004014030B50022AE
:100900008B071C0F0F2303FA04F20B4B8C1053F8C8
:1009100024309343084C8D1044F8253023468C1026
:1009200053F824308C07240F00FA04F42343024CBC
:100930008D1044F8253030BD080001402DE9F0410C
:10094000024600250026002000230024002791F8FD
:1009500003C00CF00F0591F803C00CF0100CBCF1B3
:10096000000F03D091F802C04CEA050591F800C0D1
:10097000BCF1000F31D0146800202BE04FF0010CC7
:100980000CFA00F3B1F800C00CEA03069E4220D135
:1009900083004FF00F0C0CFA03F7BC4305FA03FC7D
:1009A0004CEA040491F803C0BCF1280F06D14FF0C3
:1009B000010C0CFA00FCC2F814C00AE091F803C064
:1009C000BCF1480F05D14FF0010C0CFA00FCC2F845
:1009D00010C0401C0828D1D31460B1F800C0BCF18D
:1009E000FF0F34DD546800202EE000F1080C4FF0BA
:1009F000010808FA0CF3B1F800C00CEA03069E42A5
:100A000021D183004FF00F0C0CFA03F7BC4305FA19
:100A100003FC4CEA040491F803C0BCF1280F05D193
:100A200000F1080C08FA0CF8C2F8148091F803C021
:100A3000BCF1480F07D100F1080C4FF0010808FA8B
:100A40000CF8C2F81080401C0828CED35460BDE8D2
:100A5000F0810246002093680B400BB1012000E0BA
:100A600000207047416170470161704738B5FFF75A
:100A7000A7FD00F085FE10232FA20021084600F0FC
:100A800001FD2F480068642808D21020022300903E
:100A90002B4800210268302000F0AEFC2848006896
:100AA000642801D3012000E0002025490968B1F540
:100AB0007A7F01D2012100E00021084040B11020DE
:100AC000032300901E4800210268302000F094FCAF
:100AD0001B480068B0F57A7F01D3012000E00020B8
:100AE0001749096842F21072914201D2012100E0D7
:100AF0000021084040B1102004230090104800213C
:100B00000268302000F078FC0E480068C0F596605E
:100B10006421B0FBF1F41020042322460021009050
:100B2000482000F069FCFFF78FFD0649098888B26C
:100B300001F024F938BD000073636F72653A00005C
:100B400014040020180400207047000030B505464A
:100B50000C460B4800680078A8420FD1084800688E
:100B60004078A0420AD1FFF739FD064800680649DF
:100B70000978084403490860012030BD0020FCE7E3
:100B80000C040020140400201C04002002460E481F
:100B9000006840680D4B186010E00C480068007851
:100BA000904206D1094800684078884201D101206E
:100BB0007047064800684068044B186003480068A6
:100BC0000028EAD100BFF3E7040400200804002055
:100BD00010B500200F4908600F48006820F07040F1
:100BE0000D4908600846006840F440500860002045
:100BF0000A49C1F88C01022001F0DEF80120054904
:100C00000860022001F0D8F800200449C1F89001E2
:100C100010BD000090812142000C01400080214263
:100C200008B510208DF803001820ADF8000003204F
:100C30008DF8020069460448FFF780FE182102483B
:100C4000FFF712FF08BD0000000C014010B50020A6
:100C50000F4908600F48006820F070400D49086097
:100C60000846006840F44050086001200A49C1F875
:100C70008C01022001F0A0F8012005490860022043
:100C800001F09AF800200449C1F8900110BD00005D
:100C900090812142000C01400080214270B5054640
:100CA00000241748006820F0704015490860084685
:100CB000006840F400400860002616E0002011495A
:100CC0000860022001F078F801200F49C1F8900176
:100CD0006006040E0B488438006808B1601CC4B27A
:100CE000012001F069F8701CC6B2082EE6DB15B9C8
:100CF000FFF7ACFF01E0FFF76BFF204670BD00007F
:100D0000000C0140908121420080214270B50446D0
:100D10001548006820F070401349086008460068D4
:100D200040F440500860002010490860002517E09A
:100D3000E0090E49091F08606006040E022001F058
:100D40003BF801200A49C1F89001022001F034F873
:100D5000002006490860022001F02EF8681CC5B288
:100D6000082DE5DB70BD0000000C014090812142A0
:100D70000080214210B50F48006820F070400D49F6
:100D800008600846006840F44050086001200A49A5
:100D900008600A49C1F89001042001F00DF8002014
:100DA00005490860042001F007F800200349C1F854
:100DB000900110BD000C01408C8121420080214235
:100DC00010B50F48006820F070400D4908600846D3
:100DD000006840F44050086000200A4908600A4951
:100DE000C1F88C01042000F0E7FF012005490860EC
:100DF000042000F0E1FF01200349C1F88C0110BD7F
:100E0000000C0140908121420080214210B5002455
:100E10001448006820F070401249086008460068D5
:100E200040F40040086001200F49086000F0C4FF52
:100E300001200E49C1F8900100F0BEFF07E0601CE0
:100E4000C4B2FA2C03DDFFF7BBFF012010BD06483A
:100E5000803800680028F2D10349091D086000BFEE
:100E6000F4E70000000C01408C8121420080214207
:100E700000BFFEE71FB50121042000F08FFB0F200B
:100E8000ADF80C0048208DF80F0003208DF80E00FF
:100E900003A96348FFF752FDE020ADF80C0048209D
:100EA0008DF80F0003208DF80E0003A95D48FFF7B1
:100EB00045FD0121084600F071FB00210846FFF7BF
:100EC0001DFD01210020FFF719FD02210020FFF781
:100ED00015FD03210020FFF711FD06210120FFF77A
:100EE0000DFD05210120FFF709FD012001908DF87E
:100EF0000A0000208DF808000C208DF8090001A8D8
:100F0000FFF7B2FC0220019001208DF80A000020BA
:100F10008DF808000C208DF8090001A8FFF7A4FC4B
:100F20000420019001208DF80A0000208DF80800AF
:100F30000C208DF8090001A8FFF796FC082001900D
:100F400001208DF80A0000208DF808000C208DF893
:100F5000090001A8FFF788FC2020019001208DF8EE
:100F60000A0000208DF808000C208DF8090001A867
:100F7000FFF77AFC4020019001208DF80A00002044
:100F80008DF808000C208DF8090001A8FFF76CFC13
:100F900009208DF8000001208DF8030002208DF853
:100FA00001008DF80200684600F040F808208DF836
:100FB000000001208DF8030002208DF801008DF85B
:100FC0000200684600F032F807208DF8000001208A
:100FD0008DF8030002208DF801008DF802006846AC
:100FE00000F024F806208DF8000001208DF80300A1
:100FF00002208DF801008DF80200684600F016F816
:1010000017208DF8000001208DF8030002208DF8D4
:1010100001008DF80200684600F008F81FBD0000CE
:1010200000080140000C01407047000070B500212D
:1010300000230F22C47804B3154C246804F4E06440
:10104000C4F5E064210AC1F10403CA40447804FAFB
:1010500003F184781440214309010E4C0678A15510
:10106000047804F01F050124AC4005786D11AD0033
:1010700005F1E025C5F8004109E0047804F01F05FA
:101080000124AC40044D0678761145F8264070BD29
:101090000CED00E000E400E080E100E002490143E3
:1010A000024A1160704700000000FA050CED00E0F4
:1010B00070B5002419E004F1B001C8B2002100F0BD
:1010C00021FA0021084600F01DFA0021102000F04E
:1010D00019FA002505E00121002000F013FA681C30
:1010E000C5B2802DF7DB601CC4B2082CE3DB70BDF9
:1010F0002DE9F05F06460F4690461C46DDF828A015
:101100004FF0000BE11704EB5171C910A4EBC101C2
:1011100031B92046E11704EB5171C1F3C70506E070
:101120002046E11704EB5171C910491CCDB23D4670
:1011300015E02946304600F0D5F8B1460BE0594697
:101140000BF1010B1AF80100012100F0DBF909F1A4
:10115000010000F0FF09C145F1DB681CC5B2A542E2
:10116000E7DBBDE8F09F000008B50121042000F096
:1011700015FAB020ADF8000010208DF80300032010
:101180008DF8020069465548FFF7D8FBB021534857
:10119000FFF76AFC0121082000F000FA40F203107A
:1011A000ADF8000010208DF8030003208DF8020038
:1011B00069464B48FFF7C2FB40F203114848FFF76E
:1011C00053FC01214648FFF74FFC642000F0D6FD98
:1011D00001214348FFF746FCC82000F0CFFD012164
:1011E0003F48FFF741FC0021AE2000F08BF90021C1
:1011F000084600F087F90021102000F083F9002153
:10120000402000F07FF90021812000F07BF90021CF
:10121000CF2000F077F90021A12000F073F9002120
:10122000C82000F06FF90021A62000F06BF9002122
:10123000A82000F067F900213F2000F063F90021A9
:10124000D32000F05FF90021084600F05BF900218F
:10125000D52000F057F90021802000F053F900213B
:10126000D92000F04FF90021F12000F04BF90021C6
:10127000DA2000F047F90021122000F043F90021A4
:10128000DB2000F03FF90021402000F03BF9002175
:10129000202000F037F90021022000F033F900216E
:1012A0008D2000F02FF90021142000F02BF90021EF
:1012B000A42000F027F90021A62000F023F9002146
:1012C000AF2000F01FF90021AF2000F01BF9FFF75D
:1012D000EFFE0021084600F005F808BD00080140B7
:1012E000000C014070B504460D4605F1B001C8B2CE
:1012F000002100F007F9102141EA1410002100F04C
:1013000001F904F00F0141F00100002100F0FAF8AA
:1013100070BD00002DE9F04106460C4617464FF01F
:1013200000080025A7F1200000F0FF087F2E02DD55
:101330000026A01CC4B2601CC1B23046FFF7D2FF29
:1013400000250AE008EB4801064A02EB4101485D2E
:10135000012100F0D7F8681CC5B2062DF2DBBDE80C
:10136000F08100006A270008F0B504461546A5F193
:101370002006F2B2102B25D100200CE000EB021663
:101380001A4FBF5D04EBC1160644DFF864C00CF8C9
:101390000670461CF0B20828F0DB4E1CF1B20020AB
:1013A0000DE000EB02160836104FBF5D04EBC116CE
:1013B0000644DFF83CC00CF80670461CF0B2082862
:1013C000EFDB12E000200EE002EB4206094F07EBD4
:1013D0004606375C04EBC1160644DFF814C00CF86F
:1013E0000670461CF0B20628EEDBF0BDAA310008FC
:1013F0002C040020822F00082DE9FF4F074691465C
:101400001E460D9D4FF0000A002437E0301B401EA1
:10141000C1B20A2000F09EFD99FBF0F00A2190FB7A
:10142000F1F201FB120000F0FF08BAF1000F14D135
:10143000701EA04211DDB8F1000F0CD1AB4605EBD8
:10144000DB71491001FB0471C8B22B4620220199BF
:10145000FFF78AFF10E04FF0010AAB4605EBDB71A6
:10146000491001FB0471C8B208F13001CAB22B4621
:101470000199FFF779FF00BF601CC4B2B442C5DB1D
:10148000BDE8FF8F2DE9F04304468846154699468E
:101490000026B9F1100F01D1082700E0062710E05F
:1014A000AA5D4B4641462046FFF75EFFE019C4B2F5
:1014B000782C04DD002408F1020000F0FF08701C05
:1014C000C6B2A85D0028EBD1BDE8F0832DE9F0415C
:1014D00004460F46154600260EE0AA5D3946204612
:1014E000FFF718FF04F10800C4B2782C02DD0024D5
:1014F000B81CC7B2701CC6B2A85D0028EDD1BDE80B
:10150000F081000070B504460E4626B1022118484D
:10151000FFF7AAFA03E002211548FFF7A3FA10210A
:101520001448FFF79FFA002517E020211148FFF724
:1015300099FA04F0800020B180210E48FFF794FA58
:1015400003E080210B48FFF78DFA20210948FFF7BF
:101550008BFA6006040E681CC5B2082DE5DB10216D
:101560000448FFF781FA02210148FFF77DFA70BDB8
:10157000000C0140000801407047000029B1064AF4
:10158000D2690243044BDA6104E0034AD269824320
:10159000014BDA61704700000010024029B1064A91
:1015A00092690243044B9A6104E0034A92698243C0
:1015B000014B9A617047000000100240704710B55F
:1015C00000F002F810BD00000CB500200190009062
:1015D0003348006840F480303149086000BF30482B
:1015E000006800F4003000900198401C01900098C1
:1015F00018B90198B0F5A06FF1D12948006800F43E
:10160000003010B10120009001E00020009000980F
:10161000012843D12348006840F0100021490860A8
:101620000846006820F0030008600846006840F0A3
:10163000020008601A484068194948600846406836
:1016400048600846406840F480604860084640684A
:1016500020F47C1048600846406840F4E810486078
:101660000846006840F08070086000BF0C480068C1
:1016700000F000700028F9D00948406820F003000D
:10168000074948600846406840F00200486000BFD3
:101690000348406800F00C000828F9D10CBD000098
:1016A000001002400020024070B54FF6FA7132205F
:1016B00000F082FA4FF6FA710F2000F063FA012170
:1016C000294800F095FA0121880700F091FA0820D6
:1016D000FEF79FFD04460220FEF79BFD23490860AC
:1016E0003220096808702C202049096848702E2093
:1016F00020701E20607000206060FEF761FF0125F1
:1017000014E00820FEF785FD1949086008460068C6
:1017100044602E2000EB4500096808701E20144923
:101720000968487012480468681CC5B2032DE8DBDC
:1017300004E061782078FEF7B1FF6468002CF8D1EE
:101740000A4A12685178094A12681078FEF7A6FF13
:10175000102308A200210846FFF794FEFEF774FF4D
:1017600003200649087070BD000400400C040020EE
:101770000404002073636F72653A30001004002087
:1017800010B50820FEF745FD0446E0480078012822
:1017900069D1DF48006800782070DD480068407833
:1017A000801E60706078102801D136206070D848A3
:1017B00000686060D64804600246126851780246AC
:1017C00012681078FFF7C2F9012816D1D0480068D6
:1017D000D04908600CE0CF4A12685178CD4A1268AF
:1017E0001078FEF75BFFCB4800684068C949086085
:1017F000C84800680028EED128E0C5480068C549FF
:1018000008600CE0C34A12685178C24A1268107826
:10181000FEF744FFBF4800684068BE490860BD4805
:101820000068406840680028ECD1BA4A12685178D4
:10183000B84A12681078FEF731FFB649096848685F
:10184000FEF716FD0020B34909684860B04A1268E7
:101850005178AF4A12681078FFF798F9012802D141
:101860000020AD490870A9480078022869D1A8482D
:10187000006800782070A64800684078801C60707E
:101880006078382801D110206070A148006860603D
:101890009F48046002461268517802461268107828
:1018A000FFF754F9012816D1994800689949086052
:1018B0000CE0984A12685178964A12681078FEF740
:1018C000EDFE9448006840689249086091480068BD
:1018D0000028EED128E08E4800688E4908600CE0B0
:1018E0008C4A126851788B4A12681078FEF7D6FE3F
:1018F00088480068406887490860864800684068F2
:1019000040680028ECD1834A12685178814A1268F5
:101910001078FEF7C3FE7F4909684868FEF7A8FC07
:1019200000207C4909684860794A12685178784AF1
:1019300012681078FFF72AF9012802D100207649B1
:10194000087072480078042868D1714800680078EF
:10195000801E20706E48006840786070207808B95A
:101960007E2020706A480068606069480460024612
:1019700012685178024612681078FFF7E7F80128DC
:1019800016D163480068634908600CE0614A126838
:101990005178604A12681078FEF780FE5D48006852
:1019A00040685C4908605B4800680028EED128E088
:1019B00057480068574908600CE0564A1268517849
:1019C000544A12681078FEF769FE52480068406871
:1019D000504908604F480068406840680028ECD1D2
:1019E0004C4A126851784B4A12681078FEF756FE3E
:1019F000484909684868FEF73BFC002045490968EA
:101A00004860434A12685178414A12681078FFF7DB
:101A1000BDF8012802D100203F4908703B480078FA
:101A2000032869D13A4800680078801C207020782B
:101A3000802801D10020207035480068407860700F
:101A4000334800686060324804600246126851788A
:101A5000024612681078FFF779F8012816D12C4851
:101A600000682C4908600CE02A4A12685178294A1B
:101A700012681078FEF712FE264800684068254973
:101A80000860244800680028EED128E0204800685B
:101A9000204908600CE01F4A126851781D4A1268FC
:101AA0001078FEF7FBFD1B48006840681949086084
:101AB00018480068406840680028ECD1154A126850
:101AC0005178144A12681078FEF7E8FD1149096848
:101AD0004868FEF7CDFB00200E49096848600C4AB3
:101AE000126851780A4A12681078FFF74FF80128F7
:101AF00002D1002008490870084A12685178074A44
:101B000012681078FEF7CAFD10BD00001004002016
:101B10000404002008040020110400200C0400200C
:101B20007047000010B51348006840F001001149EB
:101B3000086008464068104908400E494860084659
:101B400000680E4908400B4908600846006820F408
:101B5000802008600846406820F4FE0048604FF48A
:101B60001F008860FFF72BFD4FF0006004490860FC
:101B700010BD0000001002400000FFF8FFFFF6FE5D
:101B800008ED00E03EB504460D4601210846FFF78A
:101B9000F5FC681E80B2ADF80000601E80B2ADF8A2
:101BA00004000020ADF80200ADF8060069464FF0D1
:101BB000804000F029F83EBD3EB504460D460121A7
:101BC0000220FFF7DBFC681E80B2ADF80000601E4B
:101BD00080B2ADF804000020ADF80200ADF80600B8
:101BE0006946024800F010F83EBD000000040040C5
:101BF00021B1028842F00102028004E002884FF61F
:101C0000FE731A4002807047002202881D4B9842E2
:101C10000ED01D4B98420BD0B0F1804F08D01B4B1B
:101C2000984205D01A4B984202D01A4B984204D1E0
:101C30004FF68F731A404B881A43174B984207D0C0
:101C4000164B984204D04FF6FF431A40CB881A43F4
:101C500002808B8883850B8803850A4B98420BD0C2
:101C6000094B984208D00E4B984205D00D4B984234
:101C700002D00D4B984201D10B7A03860123838257
:101C800070470000002C0140003401400004004077
:101C900000080040000C004000100040001400400C
:101CA0000040014000440140004801401D490988AE
:101CB00001F0200111B31B49091D0988C8B21A4956
:101CC000098801F40041C9B91749098801F4804124
:101CD00061B10A2803D00021134A118020E0124983
:101CE000098841F40041104A118019E00D2806D1FD
:101CF0000D49098841F480410B4A118010E00A49DE
:101D00000988C1F30D01094A505407490988491C43
:101D1000054A118011460988C72901DD002111807B
:101D20007047000000380140280400202C080020E3
:101D300000BFFEE700BF704700BF70474FF0E021D3
:101D4000096921F004014FF0E0221161C21700EB94
:101D50005272C2F3C702074B1A701946097801EB99
:101D60004102C2EBC1114FF6FF7202EAC101024A01
:101D7000118070471E0400202004002001460D4AF7
:101D800012884A434FF0E0235A6100229A610122EF
:101D90001A6100BF4FF0E022106900F001021AB191
:101DA00000F48032002AF5D000224FF0E0231A61BF
:101DB0009A6170472004002001460D4A12784A4378
:101DC0004FF0E0235A6100229A6101221A6100BF9C
:101DD0004FF0E022106900F001021AB100F48032E5
:101DE000002AF5D000224FF0E0231A619A61704773
:101DF0001E04002008B50024FFF794FE4820FFF7DA
:101E00009DFFFFF7B1F9FEF766FB4FF4A060FFF707
:101E100045F9FFF72FF8FFF74BF9394807238022E0
:101E2000002100900846FFF763F936A204214620FE
:101E3000FFF74CFB00BF354800780028FBD109E0D4
:101E400033A204214620FFF741FB33A2052146209F
:101E5000FFF73CFBFEF723FB0128F1D0FFF724FC42
:101E600001E0FEF703FE2E4800780028F9D12D4846
:101E700007238022002100900846FFF739F94FF42C
:101E80007A70FFF77BFFFEF79BFB102326A2002151
:101E90000846FFF7F7FA1020042300902748022194
:101EA00002683020FFF7A8FA102325A204210020A1
:101EB000FFF7E8FA02210020FEF711FB04461F4855
:101EC0000068A0420FD902221C4801680020FEF7DA
:101ED00041FB10200423009018480621026830209E
:101EE000FFF78AFA07E0102004232246062100901B
:101EF0003020FFF781FAFEF7A7FB00BFFEE70000E6
:101F00006A1F00085374617274000000000400200E
:101F1000496E69742000000046616C6C65640000C5
:101F2000110400206A230008596F75722046696EFB
:101F3000616C2053636F7265200000001404002060
:101F400020202054686520486967686573742020E4
:101F50002000000010B50246012000E050430B1E97
:101F6000A1F10104E1B2F9D110BD000000000000B0
:101F70000000000000000000000000000000003031
:101F800020A0A0A0E0C0C0E0A0A0A03010000000F1
:101F90000000000000000000000000000000000041
:101FA0000000431F7924A794DDF1F4F8FDFC3C1DEB
:101FB000581514F1F8F0F9F883502A9AE2F2F2FA7F
:101FC000F87A18C3E1F8F9FBFAF8FA03F082FAF8A4
:101FD000F9FDFC1D0C81E0F0F8F85E0DD0FFFEFE6F
:101FE000F7C787C7C7E7F323AA5500000000000022
:101FF0000000000000000000000000000000E0B849
:102000008FFD60383C3D233D7C6C70DF8CF0000020
:1020100000000000000000000000000000000000C0
:10202000000017C228A5848487C7C7EFFFFF7F3F42
:1020300007F07EFFFFDF3FFFFFF8FCFFFF7F07E1B8
:10204000F0FEFF7F7FF37173FFFFFFFC4062FBFF39
:10205000FFFF7F9E7FFFFFFFF97600FEFFFFFFFF80
:10206000FFE7F7E3E5F35299E22A000000000000E1
:10207000000000000000000000000000001E73E3EC
:10208000C1C0808C878080808E828081C1633E0049
:102090000000000000000000000000000000000040
:1020A000000093303047CF4F5F4FAF2727CF5350BB
:1020B000CF4F3F0F4B5280252BABAB292C96574F60
:1020C0004321370EC9352C8D5F57578F8C73978FEF
:1020D0006F47104D4C0CB7AFAF2090194767309841
:1020E00087702D2DEFFFB0F80F00000000000000FA
:1020F0000000000008080818F80C0406020203019A
:10210000000000FF81010101010000001F60C0808C
:1021100000000000000000000000000000000000BF
:1021200000000000000000000000000000000000AF
:10213000000000000000000000000000000000009F
:10214000000000000000000000000000000000008F
:10215000000000000000000000000000000000007F
:10216000000000000000000000000000000000006F
:102170000080E0201018080C040484860202020289
:102180000202828283868C889890B0E080000001F1
:102190000103070D1931E3020206040C78C00000A8
:1021A000000000000000000000000000000000002F
:1021B000000000000000000000000000000000001F
:1021C000000000000000000000000000000000000F
:1021D00000000000000000000000000000000000FF
:1021E00000000000000000000000000000000000EF
:1021F00000FF0000000000001C3FFD8402020301FC
:1022000001010100000000008080C0701F0000007C
:102210000000000000807FFC000000000001FF00C3
:1022200000000000000000000000000000000000AE
:10223000000000000000000000000000000000009E
:10224000000000000000000000000000000000008E
:10225000000000000000000000000000000000007E
:10226000000000000000000000000000000000006E
:1022700000010386D87060408080808101030202E3
:1022800002020301010101010100000080C0C04001
:102290006030383C17190C0300000080E01C070078
:1022A000000000000000000000000000000000002E
:1022B000000000000000000000000000000000001E
:1022C000000000000000000000000000000000000E
:1022D00000000000000000000000000000000000FE
:1022E000000000000000000000000000000080E08E
:1022F000784C66232030101030202020216161218D
:1023000021212121212121212121212121203010C0
:10231000101010101018080C040603010000000033
:1023200000000000000000000000000000000000AD
:10233000000000000000000000000000000000009D
:10234000000000000000000000000000000000008D
:10235000000000000000000000000000000000007D
:10236000000000000000000000000000000000006D
:10237000000000000000000000000000000000104D
:1023800080A080C0C0E0E0E0E0E0E0E0E0E000004D
:102390000000000000000000000000000000E0E07D
:1023A000E0E0F0F8F8F8F8F8F8E0000000000000CD
:1023B00000000000000000C0F0F0E0F0E0E0E0000D
:1023C0000000E0F0F0E0E0E0E0C0000000000020ED
:1023D000F0FAF8F8F8FAF8FAFCFCFEFCFCFCFEFC5B
:1023E000FE000000000000000000000000000000EF
:1023F0000000000000000000000001C2F0F8FEFF35
:10240000FFFFFFFFFF7F3F9F9F9F9F8F8F8FC0C06A
:10241000C0C0C0C0C08000000000C4F0FDFFFFFFCE
:10242000FF7F1F1F0F3FFFFFFFFFFFFCF08000003B
:10243000000082E0F8FEFFFFFFFFFFFFFFFFFFFE4F
:10244000FEFFFFFFFFFFFFFFFFFFFCF88004E0FC43
:10245000FFFFFFFFFFEFEFC7D3E3E3F3F1F1F9F97C
:10246000F8C00000000000000000000000000000B4
:102470000000000000000000000001FFFFFFFFFF60
:10248000FFFF017C7E7F3F9FCFDFDFDFDFDFFFFFCE
:10249000FFFFFFFFFFFFFFE0F8FFFFFFFFFFFF7FF2
:1024A0007F7EBE3E3E7E3F3FFFFFFFFFFFFFFE0001
:1024B000F8FEFFFFFFFFFFFF1F0389E0FFFFFFFFA5
:1024C000FFFFFF5F470FFFFFFFFFFF7F0FE0FFFFF3
:1024D000FFFFFFFFBF3F1F1F0F2F0F07070703015E
:1024E00008000000000000000000000000000000E4
:1024F00000000000000000000000011F7FFFFFFF40
:10250000FFFFFFFEFFFFFFFFFFFF7F3FDF5FFFFFDC
:10251000FFFFFFFFFF7F011F1F1F1F1F1F0F030173
:10252000020000000000000000033F3F3F3FBF18D3
:10253000879F5F1F1F0F0790008CA0CF9F9F9F9FBB
:102540009F5F3F010000000303E3E3F0FFFFFFFF95
:10255000FFFFFFFFFFFFFFFFFF7F7F7F0000000007
:10256000000000000000000000000000000000006B
:10257000000000000000000000000000000001D585
:10258000C1E1E1F1E1F1E1E0E0E4C0C000E0F3F13C
:10259000F1F3F1F1F1800000000000000000000004
:1025A00000001080E0E0E0E0E0F0E0C0C0E0F2F029
:1025B000F0F8FCFCFCFEFFFFFFFFFFFF7FFF7F3F0B
:1025C0003F242080C0C0C0F0C0C3E3EFE7EFE7EBDB
:1025D000E3E3EBE1E1F9C0E04000000000000000AF
:1025E00000000000000000000000000000000000EB
:1025F00000000000000000000000000080F0FEFF6E
:10260000FFFFFFFFFFFF7FFFFFFFFFFFFEC03FFF5A
:10261000FFFFFFFFFFFCC0100000802000C0E0F9BA
:10262000FDFFFFFFFFFFFFFF3F3FFFFFFFFFFFFF3C
:10263000FFDFCFEFE7F7FBFBFDFCFEFFFFFFFFFF38
:102640007FFFFEFFFFFFFFFFFFFF9F87C7C7C7E7B3
:10265000E7E7F7FFFFFF7F3F8884000000000000EE
:10266000000000000000000000000000000000006A
:10267000000000000000000000000008070FFFFF3E
:10268000FFFFFFFFFFE3FCFFFFFFFFFFFF7F0043B4
:102690001FFFFFFFFFFFFFFFF8F0FCFEFFFFFFFF44
:1026A000FFFF3F1F3F13016400F0FFFFFFFFFFFF2D
:1026B000FFFFFF7F7F3FBF1F1F0F0F07030121CCCD
:1026C000FCFFFFFFFFFFFFFFFFFFFFFFFFFFFFFF1D
:1026D000E7CF83130D400000000000000000000061
:1026E00000000000000000000000000000000000EA
:1026F0000000000000000000000000000000FFFFDC
:102700007FFFFFFFFFFF7F7FFF3F1F0F03020000E0
:10271000000007FFFFFFFFFFFFFFFFFF7F5F0F07C7
:10272000030000000000F8F8F8FFFFFFFFFFFFFFC5
:10273000FCFEFDFEFEFFFEFFFFFFFFFE94E0FEFF3E
:10274000FFFFFFFFFF3F03010B03079F9F3FFFFFBB
:10275000FFFFFFFFFFFEFCF8F8F1E0E0F0100000E3
:102760000000000000000000000000000000000069
:102770000000002F000000000700070000147F1475
:102780007F1400242A7F2A12006264081323003673
:102790004955225000000503000000001C224100A2
:1027A000000041221C000014083E08140008083EE6
:1027B0000808000000A060000008080808080000E1
:1027C00060600000002010080402003E5149453EB0
:1027D0000000427F400000426151494600214145CE
:1027E0004B31001814127F10002745454539003C35
:1027F0004A49493000017109050300364949493603
:1028000000064949291E00003636000000005636F1
:1028100000000008142241000014141414140000D5
:102820004122140800020151090600324959513E63
:10283000007C1211127C007F49494936003E41411B
:102840004122007F4141221C007F49494941007FCC
:1028500009090901003E4149497A007F0808087FBB
:102860000000417F4100002040413F01007F0814EB
:102870002241007F40404040007F020C027F007FE9
:102880000408107F003E4141413E007F09090906CE
:10289000003E4151215E007F091929460046494901
:1028A00049310001017F0101003F4040403F001FCE
:1028B0002040201F003F4038403F0063140814634D
:1028C00000070870080700615149454300007F4137
:1028D000410000552A552A55000041417F0000045F
:1028E0000201020400404040404000000102040098
:1028F000002054545478007F4844443800384444FD
:10290000442000384444487F003854545418000888
:102910007E0901020018A4A4A47C007F08040478A6
:102920000000447D4000004080847D00007F10282E
:1029300044000000417F4000007C04180478007CC3
:102940000804047800384444443800FC2424241843
:102950000018242418FC007C08040408004854547F
:10296000542000043F444020003C4040207C001C98
:102970002040201C003C4030403C004428102844AB
:10298000001CA0A0A07C004464544C4414141414F3
:10299000141400000000000000000000000000000F
:1029A0000000000000F800000000000000333000CC
:1029B000000000100C06100C0600000000000000D3
:1029C000000040C07840C0784000043F04043F0449
:1029D0000400007088FC08300000001820FF211E51
:1029E0000000F008F000E018000000211C031E2188
:1029F0001E0000F00888700000001E212324192703
:102A0000211010160E000000000000000000000061
:102A10000000000000E01804020000000007182079
:102A2000400000020418E0000000004020180700E9
:102A30000000404080F0804040000202010F01028F
:102A40000200000000F0000000000101011F010170
:102A50000100000000000000000080B070000000D5
:102A60000000000000000000000000010101010161
:102A700001010000000000000000003030000000F4
:102A800000000000000080601804006018060100CB
:102A9000000000E010080810E000000F10202010D7
:102AA0000F00001010F8000000000020203F202040
:102AB00000000070080808887000003028242221D7
:102AC000300000300888884830000018202020118D
:102AD0000E000000C02010F8000000070424243F6E
:102AE000240000F808888808080000192120201117
:102AF0000E0000E0108888180000000F112020113F
:102B00000E0000380808C83808000000003F000028
:102B100000000070880808887000001C2221212213
:102B20001C0000E010080810E00000003122221113
:102B30000F00000000C0C0000000000000303000A6
:102B40000000000000800000000000008060000025
:102B5000000000008040201008000001020408105E
:102B6000200040404040404040000404040404046D
:102B7000040000081020408000000020100804021B
:102B80000100007048080808F0000000003036011D
:102B90000000C030C828E810E000071827242314DC
:102BA0000B000000C038E0000000203C2302022798
:102BB000382008F8888888700000203F20202011E5
:102BC0000E00C03008080808380007182020201020
:102BD000080008F808080810E000203F2020201016
:102BE0000F0008F88888E8081000203F20202320E4
:102BF000180008F88888E8081000203F200003002B
:102C00000000C03008080838000007182020221EE5
:102C1000020008F808000008F808203F21010121FF
:102C20003F20000808F8080800000020203F20206E
:102C3000000000000808F8080800C08080807F00BD
:102C4000000008F888C028180800203F2001263816
:102C5000200008F8080000000000203F202020206D
:102C6000300008F8F800F8F80800203F003F003F67
:102C7000200008F830C00008F808203F200007189E
:102C80003F00E01008080810E0000F10202020107E
:102C90000F0008F808080808F000203F2101010192
:102CA0000000E01008080810E0000F182424385035
:102CB0004F0008F8888888887000203F2000030CA7
:102CC00030200070880808083800003820212122B0
:102CD0001C00180808F8080818000000203F200011
:102CE000000008F808000008F808001F2020202035
:102CF0001F000878880000C83808000007380E0157
:102D00000000F80800F80008F800033C0700073C42
:102D10000300081868808068180820302C03032CF2
:102D200030200838C800C83808000000203F2000C4
:102D3000000010080808C838080020382621202084
:102D40001800000000FE020202000000007F404068
:102D50004000000C30C000000000000000010638F8
:102D6000C00000020202FE000000004040407F0060
:102D70000000000004020202040000000000000045
:102D80000000000000000000000080808080808043
:102D9000808000020204000000000000000000002B
:102DA0000000000080808080000000192422222280
:102DB0003F2008F8008080000000003F1120201113
:102DC0000E000000008080800000000E11202020F6
:102DD0001100000000808088F800000E11202010F3
:102DE0003F200000808080800000001F22222222DD
:102DF0001300008080F0888888180020203F202061
:102E000000000000808080808000006B9494949388
:102E1000600008F8008080800000203F2100002032
:102E20003F2000809898000000000020203F2020D4
:102E30000000000000809898000000C08080807F23
:102E4000000008F8000080808000203F24022D3020
:102E50002000000808F8000000000020203F20208B
:102E600000008080808080808000203F20003F2004
:102E7000003F8080008080800000203F21000020F3
:102E80003F200000808080800000001F2020202044
:102E90001F00808000808000000080FFA1202011A2
:102EA0000E000000008080808000000E112020A015
:102EB000FF80808080008080800020203F212000D3
:102EC00001000000808080808000003324242424BE
:102ED0001900008080E0808000000000001F20209A
:102EE00000008080000000808000001F2020201053
:102EF0003F20808080000080808000010E30080626
:102F0000010080800080008080800F300C030C3036
:102F10000F0000808000808080000020312E0E3164
:102F20002000808080000080808080818E70180664
:102F3000010000808080808080000021302C2221D0
:102F4000300000000000807C020200000000003F12
:102F5000404000000000FF00000000000000FF00F3
:102F600000000002027C800000000040403F0000A2
:102F7000000000060101020204040000000000003D
:102F800000000000000000000000002F0000000012
:102F90000700070000147F147F1400242A7F2A12E0
:102FA00000626408132300364955225000000503CF
:102FB000000000001C224100000041221C000014FF
:102FC000083E08140008083E0808000000A0600041
:102FD00000080808080800006060000000201008D1
:102FE0000402003E5149453E0000427F400000423D
:102FF00061514946002141454B31001814127F10A0
:10300000002745454539003C4A49493000017109CE
:10301000050300364949493600064949291E000082
:103020003636000000005636000000081422410029
:103030000014141414140000412214080002015159
:10304000090600324959513E007C1211127C007F62
:1030500049494936003E41414122007F4141221CFD
:10306000007F49494941007F09090901003E414962
:10307000497A007F0808087F0000417F4100002056
:1030800040413F01007F08142241007F4040404002
:10309000007F020C027F007F0408107F003E414148
:1030A000413E007F09090906003E4151215E007F33
:1030B000091929460046494949310001017F0101AA
:1030C000003F4040403F001F2040201F003F40384D
:1030D000403F00631408146300070870080700618C
:1030E0005149454300007F41410000552A552A556A
:1030F000000041417F000004020102040040404002
:103100004040000001020400002054545478007F25
:103110004844443800384444442000384444487FFC
:1031200000385454541800087E0901020018A4A461
:10313000A47C007F080404780000447D4000004027
:1031400080847D00007F102844000000417F400003
:10315000007C04180478007C080404780038444497
:10316000443800FC242424180018242418FC007C73
:103170000804040800485454542000043F444020EC
:10318000003C4040207C001C2040201C003C403083
:10319000403C004428102844001CA0A0A07C00440F
:1031A00064544C441414141414140000000000005F
:1031B00000000000000000000000000000F8000017
:1031C0000000000000333000000000100C06100C5E
:1031D0000600000000000000000040C07840C078F9
:1031E0004000043F04043F040400007088FC0830E1
:1031F0000000001820FF211E0000F008F000E01879
:10320000000000211C031E211E0000F00888700031
:1032100000001E2123241927211010160E00000083
:1032200000000000000000000000000000E01804A2
:103230000200000000071820400000020418E0000F
:1032400000000040201807000000404080F080404F
:1032500040000202010F01020200000000F0000025
:1032600000000101011F0101010000000000000039
:10327000000080B0700000000000000000000000AE
:103280000000000101010101010100000000000037
:1032900000000030300000000000000000008060EE
:1032A0001804006018060100000000E01008081073
:1032B000E000000F102020100F00001010F8000098
:1032C00000000020203F202000000070080808882F
:1032D00070000030282422213000003008888848FF
:1032E00030000018202020110E000000C02010F82F
:1032F000000000070424243F240000F80888880800
:1033000008000019212020110E0000E01088881804
:103310000000000F112020110E0000380808C838E6
:1033200008000000003F00000000007088080888C6
:103330007000001C222121221C0000E0100808104F
:10334000E0000000312222110F00000000C0C00088
:10335000000000000030300000000000008000008D
:10336000000000008060000000000000804020108D
:103370000800000102040810200040404040404086
:1033800040000404040404040400000810204080E9
:10339000000000201008040201000070480808081E
:1033A000F0000000003036010000C030C828E810EE
:1033B000E0000718272423140B000000C038E000A9
:1033C0000000203C23020227382008F888888870F3
:1033D0000000203F202020110E00C03008080808FF
:1033E0003800071820202010080008F808080810E6
:1033F000E000203F202020100F0008F88888E8080F
:103400001000203F20202320180008F88888E808B2
:103410001000203F200003000000C03008080838DA
:10342000000007182020221E020008F808000008EB
:10343000F808203F210101213F20000808F8080872
:1034400000000020203F2020000000000808F808AD
:103450000800C08080807F00000008F888C028181D
:103460000800203F20012638200008F8080000004E
:103470000000203F20202020300008F8F800F8F855
:103480000800203F003F003F200008F830C000083F
:10349000F808203F200007183F00E0100808081037
:1034A000E0000F10202020100F0008F8080808087E
:1034B000F000203F210101010000E0100808081081
:1034C000E0000F18242438504F0008F888888888B6
:1034D0007000203F2000030C30200070880808088E
:1034E00038000038202121221C00180808F808089C
:1034F00018000000203F2000000008F80800000825
:10350000F808001F202020201F000878880000C82D
:103510003808000007380E010000F80800F800081D
:10352000F800033C0700073C030008186880806827
:10353000180820302C03032C30200838C800C83865
:1035400008000000203F2000000010080808C838CC
:1035500008002038262120201800000000FE02026A
:1035600002000000007F40404000000C30C000001E
:103570000000000000010638C00000020202FE0048
:103580000000004040407F000000000004020202F2
:103590000400000000000000000000000000000027
:1035A0000000808080808080808000020204000013
:1035B000000000000000000000000000808080800B
:1035C00000000019242222223F2008F800808000F9
:1035D0000000003F112020110E00000000808080BC
:1035E0000000000E112020201100000000808088C3
:1035F000F800000E112020103F2000008080808005
:103600000000001F222222221300008080F0888800
:1036100088180020203F202000000000808080804B
:103620008000006B94949493600008F80080808080
:103630000000203F210000203F20008098980000DB
:1036400000000020203F202000000000008098980B
:10365000000000C08080807F000008F800008080AB
:103660008000203F24022D302000000808F80000D0
:1036700000000020203F202000008080808080808B
:103680008000203F20003F20003F8080008080801D
:103690000000203F210000203F200000808080802B
:1036A0000000001F202020201F008080008080005C
:1036B000000080FFA12020110E000000008080800B
:1036C0008000000E112020A0FF808080800080807C
:1036D000800020203F2120000100000080808080A9
:1036E00080000033242424241900008080E080809E
:1036F00000000000001F20200000808000000080EB
:103700008000001F202020103F208080800000804B
:10371000808000010E30080601008080008000805B
:1037200080800F300C030C300F0000808000808000
:1037300080000020312E0E3120008080800000802B
:10374000808080818E7018060100008080808080DB
:1037500080000021302C2221300000000000807CFD
:10376000020200000000003F404000000000FF0097
:10377000000000000000FF0000000002027C80004A
:1037800000000040403F000000000006010102026E
:103790000404000000000000000000FC02F202FC33
:1037A000A8203847B8BFB8473A021C945C202020B4
:1037B000400000070810101008000000DC37000867
:1037C000000000202C04000028010008983900089F
:1037D0002C0400202C190000840100081108105648
:1037E000F0F8FCFEFE3FBFDF5F5F5FDFBF3FFF0122
:1037F0001A1F5FC903261E7EFCF8F0180B0F1F3737
:103800007876FBF5FAF585040D54FBF6F8F780CDD4
:10381000F0F4F4F70326707C3F1F0F0D1AF08804B4
:1038200002011C82C242012FC282828202020A3934
:10383000012DC20202C205E901140408F09BF00840
:10384000517B22F20B9808C2623212322262362970
:103850002E1153FF80241070401E848CB0A0800174
:10386000C2B8600A8080C0C0C0E0A0301F27C0601E
:1038700030180F015DE1190D0648C11AFF02C91089
:10388000B94C1BC078F3B91E3980160408880808A3
:103890001F7F4F40C080807195E13E8C8452C034C0
:1038A0000107FC1CF80E037B514B0F7019295609B8
:1038B00016801D4040407F0441180920382C2622E4
:1038C000232120010911803A01561D18080C040B10
:1038D000120122187A03D63B0103E539233A1F6F00
:1038E00019013908780AC14143C2C20203C1C18A21
:1038F000398019422C018181063909490B3916F9A1
:1039000001698015FC06FEFC1C0E0E0E5C17E080A3
:10391000801090F085F09090908A08014126111057
:103920001039EF3E0E19101088ED7FF88E0203015A
:10393000038039072A820119252D1B1018EFB6398B
:103940001629FE89014916280D0F10204E5F51508F
:1039500051515F4E4001180B43404044454740449D
:1039600044460A0912018B46441C4A4F071C414336
:10397000420119092C20100F51190A3F4C484848A0
:103980004D471E39060A117F4A292E02100159118E
:083990001AE8D0F20A00000061
:04000005080000ED02
:00000001FF
